:020000040001F9
:10900000F8420020DD93010007940100099401005B
:109010000B9401000D9401000F940100000000006A
:10902000000000000000000000000000119401009A
:109030001394010000000000159401001794010032
:10904000599B01001994010089A80100199401009D
:1090500019940100000000003D9801001D9E0100D0
:109060001994010019940100199401001994010048
:109070001994010019940100199401001994010038
:1090800039AC0100AD9B0100199401001994010055
:1090900019940100199401006DA0010019940100B8
:1090A0001994010019940100000000000000000064
:1090B0001994010019940100000000000000000054
:1090C00000000000000000000000000000000000A0
:1090D0000000000000000000000000000000000090
:1090E0000000000000000000000000000000000080
:1090F0000000000000000000000000000000000070
:10910000000000000000000000000000000000005F
:10911000000000000000000000000000000000004F
:10912000000000000000000000000000000000003F
:10913000000000000000000000000000000000002F
:10914000000000000000000000000000000000001F
:10915000000000000000000000000000000000000F
:1091600000000000000000000000000000000000FF
:1091700000000000000000000000000000000000EF
:1091800000000000000000000000000000000000DF
:1091900000000000000000000000000000000000CF
:1091A00000000000000000000000000000000000BF
:1091B00000000000000000000000000000000000AF
:1091C000000000000000000000000000000000009F
:1091D000000000000000000000000000000000008F
:1091E000000000000000000000000000000000007F
:1091F000000000000000000000000000000000006F
:10920000DFF80CD000F06CFA00480047B1F0010024
:10921000F842002030B450E8012F93B2C4892344AF
:109220008489A34228BF1B1B0489A34202BFBFF34A
:109230002F8F002007E0C3EA020340E80134002C2E
:10924000E9D14FF001000A6030BC704750E8012FAF
:10925000C2EA024240E801210029F7D1704730B448
:1092600050E8022F1FFAA2F3C488A34202BFBFF343
:109270002F8F00200DE0C48923448489A34228BF96
:109280001B1BC2EA034340E80234002CE8D14FF034
:1092900001000A6030BC704750E8022FC2EA224247
:1092A00040E802210029F7D17047034653E8022F16
:1092B000D988B2EB324F4FF0000017BF92B241EAAB
:1092C000014142EA014104E05A68B2EB324F08BF63
:1092D000012043E80212002AE8D1704730B4044666
:1092E00054E8000F0D4644E80053002BF8D11560F8
:1092F00030BC704730B4044654E8000F40EA010522
:1093000044E80053002BF7D1156030BC704730B4EF
:10931000044654E8000F00EA010544E80053002B1E
:10932000F7D1156030BC704730B4044654E8000FE4
:1093300080EA010544E80053002BF7D1156030BCEA
:10934000704730B4044654E8000F00EB010544E8D0
:109350000053002BF7D1156030BC704730B4044681
:1093600054E8000FA0EB010544E80053002BF7D1AF
:10937000156030BC704770B404464FF0000054E8EC
:10938000006F0D68AE4207BF44E80023012044E8A7
:1093900000630E60002B1CBF0020F0E770BC70471C
:1093A00030B4044654E8000F88422CBF451A0546E5
:1093B00044E80053002BF5D1156030BC7047000025
:1093C00000B583B002900091019244F20100714611
:1093D0006A4601F0D3FE03B000BD00000F480068EC
:1093E0000F4909680A280AD1002908D10D480268E6
:1093F0006FF070031A404FF040031A4302600A48AE
:1094000080470A480047FEE7FEE7FEE7FEE7FEE783
:10941000FEE7FEE7FEE7FEE7FEE700003001001092
:1094200034010010E40E00407DA60100019201000D
:109430002DE9F05F0546002092469B468846064689
:10944000814640241BE0284641464746224600F01C
:1094500000F953465A46C01A914110D31146184696
:10946000224600F016F82D1A67EB01084F462246F7
:109470000120002100F00DF817EB00094E41201EDD
:10948000A4F10104DFDC484631462A464346BDE8E4
:10949000F09F202A04DB203A00FA02F100207047F6
:1094A0009140C2F1200320FA03F319439040704722
:1094B00000487047B053020040EA01039B0703D005
:1094C00009E008C9121F08C0042AFAD203E011F803
:1094D000013B00F8013B521EF9D27047D2B201E0C5
:1094E00000F8012B491EFBD270470022F6E710B5A9
:1094F00013460A4604461946FFF7F0FF204610BD02
:10950000421C10F8011B0029FBD1801A704780EA29
:10951000010210B502F00043400022D04A001FD0E3
:10952000010E01EB1261C0F35600C2F3560240F483
:10953000000042F40002A0FB022000047F39140462
:1095400000D0401C50EA124001D44000491EC2B273
:109550000C0604EBD010401C4008802A02D003E027
:10956000002010BD20F00100002900DA002018437F
:1095700010BD30B480EA010202F0004530F0004234
:1095800021F0004013D090B1C30DD40DC2F31601E9
:10959000C0F31600E41A41F4000140F400027D34E7
:1095A000914201D3641C00E04900002C02DA30BC77
:1095B000002070474FF400000023914201D3891A24
:1095C000034340084FEA4101F7D151B1914202D122
:1095D0004FF0004105E002D24FF0010101E06FF0D1
:1095E000010103EBC450284430BC00F042B896237C
:1095F0000022114600F046B800F0004220F0004082
:10960000C10DC0F3160040F400007F2901DA0020EC
:109610007047962903DCC1F19601C84001E09639F4
:109620008840002AF4D04042704720F00040C10D2D
:10963000C0F3160040F400007F2901DA00207047D3
:10964000962903DCC1F19601C840704796398840DD
:109650007047202A04DB203A21FA02F000217047EB
:1096600021FA02F3D040C2F120029140084319468A
:1096700070470029A8BF7047401C490008BF20F070
:109680000100704710B4B0FA80FC00FA0CF050EA08
:10969000010404BF10BC704749B1CCF1200421FA89
:1096A00004F411FA0CF118BF012121430843A3EB84
:1096B0000C01CB1D4FEA00614FEA102042BF002091
:1096C00010BC704700EBC35010440029A4BF10BC6D
:1096D0007047401C490008BF20F0010010BC7047D3
:1096E000064C074D06E0E06840F0010394E80700EF
:1096F00098471034AC42F6D3FFF786FDE45A0200D7
:10970000045B020070B58C1810F8015B15F00703BC
:1097100001D110F8013B2A1106D110F8012B03E00A
:1097200010F8016B01F8016B5B1EF9D12B0705D412
:109730000023521E0DD401F8013BFAE710F8013B5B
:10974000CB1A921C03E013F8015B01F8015B521E77
:10975000F9D5A142D8D3002070BD000070B500F04B
:1097600031FA2449244A127841F82200002507E002
:10977000204850F82500214941F82500681CC5B251
:10978000052DF5DB1C480078401C1B490870084675
:109790000078052801D10020087000251EE0002473
:1097A00016E0164850F824100246601C52F82000BB
:1097B00081420BD9104650F824600146601C51F8D4
:1097C000200041F82400601C41F82060601CC4B2F5
:1097D000C5F10400A042E4DC681CC5B2042DDEDB48
:1097E0000648806806490860084600680549086020
:1097F00070BD0000C42D002063230020B02D002088
:1098000050230020D82D00202DE9F041012001F047
:1098100043F80446C4F30745C4F30726E7B22946D4
:109820001B2000F027FC31461A2000F023FC3946AB
:10983000192000F01FFCBDE8F08100002DE9F84F71
:109840000026002000904FF480770125002410E0CE
:10985000384606F0EBFD40B100BF254800682840BF
:1098600018B1384606F0D4FD2E436D00381D87B27E
:10987000641C082CECD34FF4BE7006F0D7FD50B139
:109880004FF4BE7006F0C4FD46F000466A46012162
:10989000002006F02BFDF0B210B3012500241DE0DE
:1098A00005EA0600C0B100BF124850F82400C0F31A
:1098B0000420814600BF0F4850F82400C0F3014047
:1098C0008246204602F004FF8046B8F1000F02D025
:1098D00051464846C04700BF6D00641C082CDFD3CA
:1098E00006F0004010B1684609F0E4FABDE8F88FD0
:1098F000046300401065004070B504460D46002624
:109900000422002320462946FFF792FD16B2134990
:1099100001EB860000F02AF8002007E00F4951F81B
:1099200020100F4A42F82010411C08B20428F5DB31
:1099300004210B4800F0ECFC0948806809490860E4
:109940001B2006F0F8FC1A2006F0F5FC192006F0A2
:10995000F2FC044800680449086070BDE82D00204E
:10996000282E0020D82D0020502300202DE9F04182
:10997000054605270024A046052006F0DCFC00BFB4
:109980000AE0384607F038FE08F1010000B28046D0
:10999000642801DDBDE8F081062006F0F4FC002813
:1099A000EFD1384607F028FE384607F025FE384646
:1099B00007F022FE002613E0052006F007FD062032
:1099C00006F0E1FC00B1641C6400384607F014FEA8
:1099D000052006F0B0FC384607F00EFE701C06B2FB
:1099E000182EE9DB00260DE0052006F0EFFC3846D6
:1099F00007F002FE052006F09EFC384607F0FCFD4D
:109A0000701C06B2042EEFDBB4F5000F02D9A4F5EA
:109A1000000001E004F50000044624F07F442C60BF
:109A200000BFB7E710B51E2006F03BFC0C2006F087
:109A300038FC1B2006F035FC1A2006F032FC1920F9
:109A400006F02FFC0021062006F01EFC052006F083
:109A500028FC142006F025FC122006F022FC002130
:109A6000102006F011FC03210F2006F00DFC00244D
:109A700019E0122006F09FFC142005F05FFF122071
:109A800006F04EFC142005F059FF142006F093FC5C
:109A9000142005F053FF142006F042FC142005F0BA
:109AA0004DFF601C04B2022CE3DB1E2006F083FC99
:109AB000142005F043FF0C2006F032FC1B2006F0BA
:109AC0007AFC0120034908700846007800F05AFD2E
:109AD00010BD0000CA2200202DE9F041FFF73EFE34
:109AE00018480468C4F30745C4F30726E7B22946BB
:109AF000022000F0BFFA3146012000F0BBFA3946DF
:109B0000002000F0B7FAFF21052000F0B3FAFF2192
:109B1000042000F0AFFAFF21032000F0ABFAFF2190
:109B2000062000F0A7FA00211B2000F0A3FA002174
:109B30001A2000F09FFA0021192000F09BFABDE8DE
:109B4000F081000050230020014601F10800014A85
:109B5000105C7047F02C002010B54FF4807005F0B9
:109B6000D0FE80B14FF4807005F0D4FE012005F0E6
:109B7000DBFE0D48407930B901200B494871084699
:109B80000168002088474FF4827005F0BAFE50B19A
:109B90004FF4827005F0BEFE022005F0C5FE0248BB
:109BA00001680120884710BD7823002010B5034AC2
:109BB0001068034A1168884710BD0000DC230020AC
:109BC000D823002070B5052006F0B5FB002412E074
:109BD0003046711CCEB205280DDD00261849194A01
:109BE000891AC908032242EA014017A106F066FE5D
:109BF0001848006870BD062006F0C5FB0028E7D1B4
:109C000000250DE0052006F0E1FB6400052006F0CC
:109C100092FB062006F0B7FB00B1641C681CC5B2BD
:109C20001A2DEFDB6408052006F0D0FB24F07F44FA
:109C300084F40004052006F07EFB2046DAE70000ED
:109C4000845B0200145B02005265616420457272FD
:109C50006F722100502300202DE9F84F0AF06CFFAD
:109C60000220FFF771FF07460120FFF76DFF044652
:109C70000020FFF769FF80460520FFF765FF81465A
:109C80000420FFF761FF05460320FFF75DFF8246D2
:109C90000620FFF759FF584908700720FFF754FFC7
:109CA000564908700C20FFF74FFF554948700B20AC
:109CB000FFF74AFF534948700A20FFF745FF524912
:109CC00048700F20FFF740FF4D4988700E20FFF7C6
:109CD0003BFF4C4988700D20FFF736FF4A498870DA
:109CE0001220FFF731FF4649C8701120FFF72CFF03
:109CF0004449C8701020FFF727FF4349C87015205A
:109D0000FFF722FF3E4908711420FFF71DFF3D4970
:109D100008711320FFF718FF3B4908711820FFF75F
:109D200013FF374948721720FFF70EFF3549487275
:109D30001620FFF709FF344948721B20FFF704FF84
:109D400083461A20FFF700FF06461920FFF7FCFEA6
:109D500000904FEA0B4000EB0621009808442B4985
:109D60000860380400EB04204044294908604FEAA9
:109D7000094000EB052050442649086020484078FF
:109D800001042048407801EB00201F49497808442D
:109D9000214948601A48807801041A48807801EB0C
:109DA00000201949897808441B4988601448C07804
:109DB00001041448C07801EB00201349C978084415
:109DC0001549C8600E48007901040E48007901EB7E
:109DD00000200D49097908440F4908610848407A74
:109DE00001040848407A01EB00200749497A0844F9
:109DF00009494862BDE8F88F6123002060230020F4
:109E0000902D00209A2D0020A42D00205423002006
:109E1000582300205C230020682D0020FEB54FF45D
:109E2000827006F0C9FF002837D04FF4827006F028
:109E3000CDFF6C4890F82E0018B16A4890F82F00BA
:109E400058B300208DF800006648406801906548CE
:109E50000189ADF80810C06818B90020614908747C
:109E600012E06048008B5F4948830846C06848603C
:109E70000846008B08810020C860084690F82E0034
:109E800010B9002006F0C4FF5648016868468847AC
:109E90000020544981F82F0000BF524890F82E004E
:109EA000002852D04FF4807006F086FF00284CD076
:109EB0004FF4807006F08AFF4A48408B494991F878
:109EC0002D10884216DD4748408B464991F82D10E9
:109ED000401A444948830A4612890B465B8BD21AC2
:109EE0000B465B6803EB42000A4692F82D1006F021
:109EF0004FFF23E03B48408B3A4991F82D108842B0
:109F00000FD13848C06860B10120364981F82F0070
:109F1000002048830A4692F82D10D06806F038FFDA
:109F20000CE03048408B2F4991F82D10884205D124
:109F300001202C4981F82F00002048834FF48270C3
:109F400006F044FF042006F063FF4FF4887006F02B
:109F500033FF70B14FF4887006F038FF00202149BC
:109F6000087402208DF8000008460168684688479A
:109F700000BF4FF48A7006F01FFF38B14FF48A70AB
:109F800006F024FF0020174908742AE015484569A7
:109F900024E0B5FA85F64FF00040F0408543B0006C
:109FA00000F58C74204606F007FFB8B1204606F095
:109FB0000DFF01208DF80000A4F58C70C0F3C700E0
:109FC0008DF80400A4F58C70012121EA90018DF830
:109FD0000510044801686846884700BF002DD8D1A5
:109FE00000BFFEBDF42F00202DE9F047074688464C
:109FF0001646C24607EB47011B4800EBC109D9F8DA
:10A00000140020B1012811D0022826D11EE04846B4
:10A0100000F032FE0546B54201D2002405E0344688
:10A0200032465146484600F06EFE18E0484600F0C1
:10A0300023FE0546B54201D2284600E030460446DC
:10A0400022465146484600F05EFE08E03246514640
:10A05000484600F01FFE044601E0002400BF00BF98
:10A060002046BDE8F08700008838002010B507F0D2
:10A070001DF910BD4FF06B32064B5A600A23054A9A
:10A08000936000F10802034B1B1D995401221B1F12
:10A090001A707047EC2C00202DE9F84F064600217D
:10A0A0001B20FFF7E7FF00211A20FFF7E3FF002145
:10A0B0001920FFF7DFFF9EB991480568C5F30747F0
:10A0C000C5F3072805F0FF0939460220FFF7D2FF44
:10A0D00041460120FFF7CEFF49460020FFF7CAFFA7
:10A0E000002E62D0344686480568C5F3074AC5F39A
:10A0F000072BE8B200908348281A834909688842F0
:10A1000054D982480078012850D00A2C07D0142C4A
:10A1100005D01E2C03D0282C01D05A2C46D10A2C55
:10A120000BD151460C20FFF7A5FF59460B20FFF736
:10A13000A1FF0A200099FFF79DFF142C0BD1514677
:10A140000F20FFF797FF59460E20FFF793FF0D20D2
:10A150000099FFF78FFF1E2C0BD151461220FFF7FD
:10A1600089FF59461120FFF785FF10200099FFF75E
:10A1700081FF282C0BD151461520FFF77BFF594654
:10A180001420FFF777FF13200099FFF773FF5A2C75
:10A190000BD151461820FFF76DFF59461720FFF7E6
:10A1A00069FF16200099FFF765FFA7E0554828448E
:10A1B00055490968884254D254480078012850D142
:10A1C0000A2C07D0142C05D01E2C03D0282C01D02B
:10A1D0005A2C46D10A2C0BD151460C20FFF74AFFCE
:10A1E00059460B20FFF746FF0A200099FFF742FF70
:10A1F000142C0BD151460F20FFF73CFF59460E207F
:10A20000FFF738FF0D200099FFF734FF1E2C0BD10C
:10A2100051461220FFF72EFF59461120FFF72AFF63
:10A2200010200099FFF726FF282C0BD1514615204E
:10A23000FFF720FF59461420FFF71CFF1320009959
:10A24000FFF718FF5A2C59D151461820FFF712FF7B
:10A2500059461720FFF70EFF16200099FFF70AFF57
:10A260004CE02848281A28490968884220D9052C3A
:10A270001EDB0A2C1CD0142C1AD01E2C18D0282C13
:10A2800016D05A2C14D051460520FFF7F3FE59463C
:10A290000420FFF7EFFE03200099FFF7EBFE2146B5
:10A2A0000620FFF7E7FE00210720FFF7E3FE25E089
:10A2B000144828441449096888421FD2052C1DDB24
:10A2C0000A2C1BD0142C19D01E2C17D0282C15D0DA
:10A2D0005A2C13D051460520FFF7CCFE59460420D6
:10A2E000FFF7C8FE03200099FFF7C4FE21460620B1
:10A2F000FFF7C0FE01210720FFF7BCFEBDE8F88F85
:10A3000050230020A0860100582300206023002055
:10A31000F0B505460C4629460026012020E0471EE0
:10A32000BBB2024608E051F8227051F823C06745DD
:10A3300000D21346571CBAB2671E9742F3DA471E83
:10A340009F420BD001EB800757F8046C51F8237043
:10A3500001EB800C4CF8047C41F82360471CB8B238
:10A36000671E8742DBDAF0BD1FB57DA207CA01ABCD
:10A3700007C39DF80B0030384FF47A7110FB01F1E0
:10A380009DF80C00303800EBC00202EB001001EB2E
:10A3900080019DF80D00303800EB800001EB40019A
:10A3A0009DF80E0030380844704908809DF804007C
:10A3B0004A2809D19DF80500612805D19DF80600BD
:10A3C0006E2801D1012048809DF8040046280AD15A
:10A3D0009DF80500652806D19DF80600622802D187
:10A3E0000220624948809DF804004D280AD19DF85A
:10A3F0000500612806D19DF80600722802D10320CD
:10A400005A4948809DF8040041280AD19DF805006A
:10A41000702806D19DF80600722802D10420534905
:10A4200048809DF804004D280AD19DF80500612858
:10A4300006D19DF80600792802D105204B494880B5
:10A440009DF804004A280AD19DF80500752806D118
:10A450009DF806006E2802D10620444948809DF8E8
:10A4600004004A280AD19DF80500752806D19DF8F8
:10A4700006006C2802D107203C4948809DF8040062
:10A4800041280AD19DF80500752806D19DF80600DF
:10A49000672802D10820354948809DF804005328D8
:10A4A0000AD19DF80500652806D19DF806007028A0
:10A4B00002D109202D4948809DF804004F280AD177
:10A4C0009DF80500632806D19DF80600742802D186
:10A4D0000A20264948809DF804004E280AD19DF89C
:10A4E00005006F2806D19DF80600762802D10B20C2
:10A4F0001E4948809DF8040044280AD19DF80500B3
:10A50000652806D19DF80600632802D10C20174962
:10A5100048809DF8080030280CDD9DF8090030388F
:10A520009DF80810303901EB810100EB41000F4923
:10A53000888004E09DF8090030380C4988800B4879
:10A5400080880A4900904B880A880949094C091BF0
:10A55000C908032444EA014007A106F0D5F91FBD4C
:10A560004175672031382032303233001823002003
:10A57000845B0200145B020025642D25642D256494
:10A580000000000010B5044684B935480078012861
:10A5900006D1142005F00FFF122005F00CFF05E096
:10A5A000122005F0BDFE142005F0BAFE012C1ED1CC
:10A5B0002B480078012806D1142005F0FCFE12205B
:10A5C00005F0F9FE13E02748007830B9122005F0B5
:10A5D000F2FE142005F0A4FE09E0224800780128CC
:10A5E00005D1142005F0E7FE122005F099FE022C9B
:10A5F00001D0032C32D11A48007801281AD11A4808
:10A600000078012809D1142005F0D5FE122005F0AC
:10A61000D2FE00201449087020E013480078E8B901
:10A62000142005F07DFE122005F07AFE01200E496F
:10A63000087013E00B48007830B9122005F0D1FE05
:10A64000142005F06DFE09E006480078012805D1C8
:10A65000142005F0C6FE122005F062FE10BD0000B9
:10A66000CD220020D0220020CE2200200148024925
:10A67000086070470048E8019C24002010B504F0F1
:10A68000A5FE28B16A480068C0F3423069490860F5
:10A6900004F0B2FE48B10020674908604FF08041E5
:10A6A000C1F810016349091F086004F0BBFE0028CF
:10A6B00055D062480068624908606048001D006823
:10A6C000091D08605D4808300068091D08605B4886
:10A6D0000C300068091D0860584810300068091DDA
:10A6E0000860564814300068091D08605348183047
:10A6F000006853492031086050481C300068091D2B
:10A7000008604E4820300068091D08604B4824301E
:10A710000068091D0860494828300068091D086064
:10A7200046482C300068091D0860444830300068F5
:10A73000434940310860414834300068091D0860D1
:10A740003E4838300068091D08603C483C300068CD
:10A75000091D0860394840300068091D086004F090
:10A7600007FE10B1FB203749086004F003FE40B13A
:10A770003548006800F0010018B16FF0010032495F
:10A78000086004F00DFE28B13048006840F00F006A
:10A790002E4908602E48006800F0004030B92C486F
:10A7A000001D006800F0004000283ED0012029492B
:10A7B000086000BF284800680028FBD01520244905
:10A7C000086000BF244800680028FBD015212048FD
:10A7D000001D016000BF204800680028FBD0002059
:10A7E0001C49086000BF1C4800680028FBD000BF5F
:10A7F00000BF00BF00BF00BFBFF34F8F00BF00BF4F
:10A8000000BF1648006800F4E06015490843001DC9
:10A810001249086000BF00BF00BFBFF34F8F00BFE9
:10A8200000BF00BF00BF00BFFDE7FFF71FFF10BD67
:10A83000440200103C0500400C01004004040010DC
:10A8400020C5004018F5004000040040E40E004020
:10A850000012001004E5014000E401400CED00E0AE
:10A860000000FA0501460A2903DA01F13000C0B2FE
:10A8700070470A2905DB102903DA01F13700C0B25D
:10A88000F6E73020F4E7000010B502490868804779
:10A8900010BD0000802300202DE9F0470746D64870
:10A8A00004680568D5480068A04203D9D348006809
:10A8B000041B02E0D1480068241AD0480068A8426E
:10A8C00003D9CE480068451B02E0CC4800682D1A29
:10A8D000CB480078012814D0CA480078FEF787FEDC
:10A8E0008146C9490968C54A1268881AFEF77FFE81
:10A8F00082464946FEF73DFE8046C449FEF739FED2
:10A900000646BF480078012814D1BE480078FEF7FB
:10A910006EFE8146B9490968BB4A1268881AFEF77B
:10A9200066FE82464946FEF724FE8046B749FEF79A
:10A9300020FE06462046FEF75AFE81463146FEF7C7
:10A9400018FE8046FEF771FE0446AD4800780128E7
:10A9500062D0B4F57A7F0FD3AD494968A74A12682F
:10A96000881AFEF744FE8146AA49FEF702FE804699
:10A97000A649FEF7FEFD064643F6982084420FD313
:10A98000A34989689D4A1268881AFEF730FE8146FD
:10A99000A149FEF7EEFD80469C49FEF7EAFD06461A
:10A9A00046F2A81084420FD39949C968934A1268A5
:10A9B000881AFEF71CFE81469849FEF7DAFD8046AC
:10A9C0009249FEF7D6FD064648F6B80084420FD3FA
:10A9D0008F490969894A1268881AFEF708FE81467C
:10A9E0008F49FEF7C6FD80468849FEF7C2FD064640
:10A9F0004EF6602084420FD38549496A7F4A126827
:10AA0000881AFEF7F4FD81468649FEF7B2FD8046BE
:10AA10007E49FEF7AEFD064679480078012862D1EE
:10AA2000B4F57A7F0FD37A494968744A1268501A8C
:10AA3000FEF7DDFD81467749FEF79BFD80467349B1
:10AA4000FEF797FD064643F6982084420FD37049DF
:10AA500089686A4A1268501AFEF7C9FD81466E4934
:10AA6000FEF787FD80466949FEF783FD064646F2FC
:10AA7000A81084420FD36649C968604A1268501A08
:10AA8000FEF7B5FD81466549FEF773FD80465F49D7
:10AA9000FEF76FFD064648F6B80084420FD35C49C6
:10AAA0000969564A1268501AFEF7A1FD81465C49B1
:10AAB000FEF75FFD80465549FEF75BFD06464EF604
:10AAC000602084420FD35249496A4C4A1268501A96
:10AAD000FEF78DFD81465349FEF74BFD80464B49FD
:10AAE000FEF747FD06462846FEF781FD81463146C2
:10AAF000FEF73FFD8046FEF798FD0546601B41F2DC
:10AB00008831884202D3281B88420AD246484078BE
:10AB100038B1B4F57A7F04D343F69820844200D24A
:10AB20002C46601B41F28831884202D3281B8842A0
:10AB30000BD23D48807840B143F69820844204D33C
:10AB400046F2A810844200D22C46601B41F28831A4
:10AB5000884202D3281B88420BD23348C07840B1C8
:10AB600046F2A810844204D348F6B800844200D2CA
:10AB70002C46601B41F28831884202D3281B884250
:10AB80000BD22948007940B148F6B800844204D37A
:10AB90004AF6C870844200D22C46601B41F65831F8
:10ABA000884202D3281B884213D21F48407A80B1C2
:10ABB0004EF66020844205D31C48844202D26008CD
:10ABC00000EB55041948844203D31948844200D24B
:10ABD0002C460A20B4FBF0F457B9164800688442AA
:10ABE00003D314480068241A02E012480068041BCA
:10ABF0002046BDE8F08700005023002058230020A5
:10AC000060230020612300205C23002000007A44A0
:10AC1000682D0020000020410000A0410000F0410C
:10AC2000000020420000B442A42D00207011010059
:10AC3000B0AD01005423002008B500BF4FF4807070
:10AC40000B49405808B1012000E0002078B10948C4
:10AC50000068804700BF00204FF48071044A88508C
:10AC6000084611464058009000BF00BF00BF08BD15
:10AC7000000001408C23002010B501460A69CB6812
:10AC80009A4204D88C68641EE41AA01801E0D41A11
:10AC9000601E10BD2DE9F0470446894617464FF067
:10ACA000000AE56800BFD4F81080A84503D9A8EBD6
:10ACB0000500461E04E0A5EB0800401CA1680E1A22
:10ACC000A068401BB04201D9304601E0A068401B9B
:10ACD0000646BE4201D2304600E03846064661686C
:10ACE000481932464946FEF7E7FBB244B144BF1B60
:10ACF0003544A068A84200D10025E560002FD2D1DC
:10AD00005046BDE8F0872DE9F047044689461546D0
:10AD1000E668A068871BAF4208D9616888192A468F
:10AD20004946FEF7C9FB7019E06010E0B84661685B
:10AD3000881942464946FEF7BFFBA5EB070809EB19
:10AD4000070142466068FEF7B7FBC4F80C80BDE817
:10AD5000F087000000BF00BF00BFBFF34F8F00BFF0
:10AD600000BF00BF0948006800F4E06008490843DC
:10AD7000001D0649086000BF00BF00BFBFF34F8F32
:10AD800000BF00BF00BF00BF00BFFDE70CED00E04B
:10AD90000000FA0502E008C8121F08C1002AFAD113
:10ADA00070477047002001E001C1121F002AFBD14B
:10ADB000704700000146202908DA012088400A4A2D
:10ADC000104008B1012070470020FCE7402909DA53
:10ADD000A1F12000012202FA00F008B10120F2E7FF
:10ADE0000020F0E70120EEE7FC06FFBD00BFEFF317
:10ADF0001081084672B67047014601F0030008B999
:10AE0000012070470020FCE7024650680068401EA1
:10AE1000084008B9012070470020FCE702460021E5
:10AE200004E0505C08B101207047491C0629F8D3A2
:10AE30000020F9E710B50346D868884206D888187C
:10AE4000401E1C69A04201D8012010BD0020FCE773
:10AE500010B504466CB10848C068A04209D806483D
:10AE60000069A04205D3204603F06BFB08B1012026
:10AE700010BD0020FCE70000A024002070B50446AF
:10AE80000D4604F22740FFF7C9FF0646012D06D004
:10AE9000022D0DD0032D11D0042D19D113E0A0796E
:10AEA00028B194F8240010B90EB1012070BD00BF84
:10AEB000E07910B10EB10220F8E700BF207A08B1A6
:10AEC0000320F3E700BF607A08B10420EEE700BF7B
:10AED0000020EBE70146481C052290FBF2F302FB41
:10AEE0001300C0B27047014691F82420012A01D115
:10AEF000EE2000E01F20704730B59FB03C2110A825
:10AF0000FEF7F3FA3C2101A8FEF7EFFA02208DF8D4
:10AF1000400000208DF8420006208DF843000120FB
:10AF2000ADF814000A49069101AA10A9094800F0D9
:10AF300043FD044600BF25463DB100BF06A24FF4C5
:10AF4000C8712846FEF73CFA00BF00BF1FB030BDF5
:10AF5000482300208C2800202E2E5C2E2E5C617051
:10AF6000705C6465766963655F6E616D655C646580
:10AF7000766963655F6E616D655F6F702E6300005B
:10AF800030B5ADB004202C90AC2101A8FEF7ADFA8D
:10AF900002208DF8040000208DF806002CA80290F5
:10AFA00006208DF807000121ADF850101A491591BF
:10AFB00001218DF880104FF4A0712391002124917C
:10AFC00016482A9001A9164800F05CFD044600BF0F
:10AFD00025463DB100BF13A24FF4EA712846FEF7A3
:10AFE000EFF900BF00BF01210D4800F048FD0C48FB
:10AFF00090F854100422012077DF044600BF254654
:10B000003DB100BF07A240F2DD112846FEF7D8F996
:10B0100000BF00BF2DB030BD482300201922020020
:10B020008C2800202E2E5C2E2E5C6170705C646576
:10B03000766963655F6E616D655C6465766963659D
:10B040005F6E616D655F6F702E63000070B50321E8
:10B05000084800F0C2FD044600BF25463DB100BFD0
:10B0600005A240F2E5112846FEF7AAF900BF00BF8D
:10B0700070BD00008C2800202E2E5C2E2E5C61708E
:10B08000705C6465766963655F6E616D655C64655F
:10B09000766963655F6E616D655F6F702E6300003A
:10B0A00010B5002407E00749096811F834000121B0
:10B0B00006F0D6FA641C044800788442F3D30020DA
:10B0C00010BD000090230020942300202DE9F843B8
:10B0D00006460D4617460A2F02D20720BDE8F88320
:10B0E00006F002FC38B906F095FB044600BF204686
:10B0F00000B1F3E700BF184806601848057018480B
:10B10000076018480021016041608160C160164AF3
:10B110001160516015E006EBC50814480068009006
:10B1200098F802008DF8010098F80000104A69466E
:10B1300006F0ECFA044600BF204600B1CEE700BF9F
:10B1400000BF281EA5F10101CDB2E4D1094A0021BA
:10B15000094800F063F9C1E7902300209423002000
:10B160009823002048300020A02300203050020007
:10B17000BDE00100F5CC01002C5002002DE9FE439A
:10B1800007460E46144672B600BF05F085FC00BFA8
:10B1900000BF05F005FA0028FBD100BF00BF012F5A
:10B1A0000CD06FF48050384498B1B0F5405F2CD08B
:10B1B0006FF440510844002847D115E03149324A24
:10B1C000891AC908012242EA014030A105F076FB44
:10B1D00047E02C492C4A891AC908012242EA014059
:10B1E00032A105F06BFB3CE025462649DFF898C00C
:10B1F000A1EB0C01C9084FF0010C4CEA014034A14D
:10B20000D5E9003205F070FB2BE02546A86806F072
:10B2100057F98046D5E900108DE8430019491A4BCB
:10B22000C91AC908012343EA014043462FA1AA686D
:10B2300005F07EFB1349144A891AC908012242EA23
:10B24000014034A105F03AFB0BE00E490E4A891A81
:10B25000C908012242EA0140324633A105F038FB19
:10B2600000BF00BF00BF3648006800F0010000B119
:10B2700000BE00BF22463146384600F063F8BDE804
:10B28000FE830000845B0200145B0200534F4654AF
:10B290004445564943453A20415353455254494F3A
:10B2A0004E204641494C454400000000534F46544F
:10B2B0004445564943453A20494E56414C4944205D
:10B2C0004D454D4F525920414343455353000000D3
:10B2D000415353455254494F4E204641494C4544F1
:10B2E0002061742025733A25750000004552524FA5
:10B2F00052202575205B25735D2061742025733AEB
:10B3000025750D0A50432061743A20307825303875
:10B3100078000000456E64206F66206572726F725F
:10B32000207265706F727400554E4B4E4F574E2011
:10B330004641554C542061742030782530385800EF
:10B34000F0ED00E018B5012300939DF800301E4B8E
:10B35000186059609A606FF48043034463B1012B15
:10B3600019D1194BDA60DB681B68174CA3612346BF
:10B37000DB685B68E3610EE0134B1A611B699B6835
:10B38000114C636123461B691B68A36123461B693B
:10B390005B68E36100BF00BF0B4B1B680A4B5B6837
:10B3A000094B9B68084BDB68074B1B69064B5B69C5
:10B3B000054B9B69044BDB6972B600BF9DF80030FA
:10B3C000002BFBD162B618BDCC30002070B504460E
:10B3D0000D46204602F0F4FA28B12946204602F034
:10B3E000E3FA002070BD0520FCE770B504460D4669
:10B3F000204602F0E5FAA188884205D82946204671
:10B4000002F0ECFA002070BD0420FCE710B5024801
:10B4100001F0A0FD10BD0000A823002010B50346D8
:10B420000C460AB9072010BD19684A61012C01D1E8
:10B43000012000E0002008610020F4E738B513483F
:10B44000006800900823582211491248006804F04F
:10B450000AF804460CB1204638BD0F4A69460F4829
:10B4600001F07EFD04460CB12046F5E701210B48B2
:10B4700001F01CFE01230A4A1946084801F03CFD70
:10B480000120084908702046E6E700004450020009
:10B490005830002034500200E3360200A823002078
:10B4A000FFFF7F00B42300202DE9F04106460D4642
:10B4B00017463446207F10B10020BDE8F081A76117
:10B4C00002F0DEFD401941F10001C4E902012069EA
:10B4D00000B125612146002008F0C8FEEDE770B5F7
:10B4E00004462546002028772946012008F0BEFEA4
:10B4F00070BD000010B50020034908700021022033
:10B5000008F0B4FE10BD0000B423002010B50A4CB2
:10B5100020780A49085C18B1201D06F08DFD07E06F
:10B5200020780649085C18B904F10C0006F0F2FC1A
:10B5300000BF002010BD0000E42300207423002081
:10B540002DE9F041054629461448FFF74EFF06460F
:10B5500006BB134C002720781249085C20B1201D3F
:10B5600006F05AFD074608E020780E49085C20B92D
:10B5700004F10C0006F0BCFC074600BF57B90A49AD
:10B580000648FFF723FF28B901220749044804F0C1
:10B590002BFA06463046BDE8F08100000831002055
:10B5A000E423002074230020FC23002010B504466F
:10B5B000204608F015FA10BD70B5044625460E4821
:10B5C0008068B0B1ADB9FFF711FC06460A480068C3
:10B5D0000A490860084840684FF0E021C1F80401BA
:10B5E0000020054988601EB900BF62B600BF00BFD9
:10B5F00000BF00BF70BD0000EC30002000E100E0A3
:10B60000F8B505460C4617462088001DB84201D9FA
:10B610000C20F8BD684679DF064600BF304600B111
:10B62000F7E700BF0320218868542088401C208051
:10B630001920218868542088401C208020884119C6
:10B64000BDF8000009F004F821880844208000209B
:10B65000DFE7000008B500200090694606F028FBEF
:10B660001F48006840B980211E48FDF73EFF0020BA
:10B670001D4908601D4908801948007800F03F0006
:10B68000184931F8100018490968081A1649086065
:10B69000BDF800001249097801F03F01114A22F873
:10B6A0001100BDF8000080B20F49096808440E4936
:10B6B00008600B480068402803D9084600688009E4
:10B6C00006E00948016806480068401CB1FBF0F03C
:10B6D0000649088002480068401C0149086008BD0E
:10B6E00024230020182500202023002028230020C8
:10B6F0002DE9F04104460F46154615B90E20BDE868
:10B70000F0810020286000BF0CB90E20F7E700BFD1
:10B7100000BF206808B90E20F1E700BF00BFE08835
:10B72000C11700EB91718910A0EB810109B10720CD
:10B73000E5E700BF384600F059FBC6B2142E01D130
:10B740000520DCE72079B04201DC0420D7E7E1885E
:10B75000206806FB010028600020D0E710B58CB0FF
:10B7600001208DF808004FF4A0700590002006908D
:10B7700001208DF8040001A90C4800F007FA0B49DC
:10B7800091F8540074DF0021084800F026FA0446BE
:10B790000749084A891AC908032242EA0140224699
:10B7A00005A105F095F80CB010BD00008C28002014
:10B7B000845B0200145B0200424C45204164762009
:10B7C00053746F70212564002DE9FC4105468846BD
:10B7D0001646002437880020308095F82D0058B197
:10B7E0003A463146404600F019FB044600BF204669
:10B7F00008B1BDE8FC8100BFA87850B13A46314697
:10B800004046FFF7FDFE044600BF204600B1F0E7CA
:10B8100000BFE87860B1E97848B23B46324641461D
:10B8200002F0D3F9044600BF204600B1E1E700BFB3
:10B83000686868B1696891F900003B463246414644
:10B8400008F0E3FD044600BF204600B1D1E700BF89
:10B85000288900280EDD43460622022105F1080052
:10B86000CDE9006709F032F8044600BF204600B178
:10B87000BFE700BF288A00280EDD434607220321C8
:10B8800005F11000CDE9006709F020F8044600BF7B
:10B89000204600B1ADE700BF288B00280EDD4346EF
:10B8A0001522142105F11800CDE9006709F00EF802
:10B8B000044600BF204600B19BE700BF286A58B18C
:10B8C0003B4632464146286A01F0D2F8044600BFA2
:10B8D000204600B18DE700BF686A58B13B4632464A
:10B8E0004146686A03F00AFC044600BF204600B1E6
:10B8F0007FE700BF95F82C0000280BDD3B46324661
:10B900004146284608F080F9044600BF204600B1B1
:10B910006FE700BF287858B13B463246414628467B
:10B9200003F0C2FC044600BF204600B161E700BF3F
:10B9300020465EE7F8B504460E4615460020009006
:10B940002B466A463146204600F008F807460FB9F4
:10B950000020F8BDBDF800002044FAE7F0B5044629
:10B960000D461E4604B10AB90020F0BD002103E0D7
:10B97000605C401C084481B2481CA84206DA10886A
:10B980008842F5DC481C205CB042F1D1A94201DBC1
:10B990000020EAE7881C87B2605C10B1605C401E42
:10B9A00000E0002083B213B1F818A84201DD0020A6
:10B9B000DBE717801846D8E72DE9FF4104460D461E
:10B9C000164600BF1CB90E2004B0BDE8F08100BFD0
:10B9D000207808B90820F7E715B90EB90E20F3E76B
:10B9E00000200090019002900390DDB1D4F8200473
:10B9F000016804F15500814200D001E004F24310D7
:10BA000000902046FFF76FFAADF8040001AA28461F
:10BA10000099FFF7D9FE074600BF384600B1D3E7CB
:10BA200000BF00BFDEB1D4F82004816804F23120E9
:10BA3000814200D001E004F21F3002902046FFF75F
:10BA400052FAADF80C0003AA30460299FFF7BCFE8B
:10BA5000074600BF384600B1B6E700BF00BF04F597
:10BA600080609DE88E0010308EC01038C4F820042D
:10BA7000002204F15400D4F8201472DFA4E780F807
:10BA80003010704770B504460D4605B10CB90E2054
:10BA900070BD05F1780000F08CFF08B90720F7E7CA
:10BAA0000020A0702C2205F17801201DFDF704FD77
:10BAB000002084F83000D5F8A4006063D5F8A80011
:10BAC000A0634FF6FF70A4F8240404F58260C4F864
:10BAD0002004002140F22C40C4F82614A4F82A14B3
:10BAE0000155207810B9FF2084F8540004F1550066
:10BAF000C4F810042046FFF7F6F940F21441085349
:10BB000004F2144204F155012846FFF75DFE064693
:10BB100000BF304600B1BBE700BF04F231204FF454
:10BB2000836108512046FFF7DEF9A4F81C044FF4A6
:10BB30008360015904F21C4205F13C00FFF744FE0A
:10BB4000064600BF304600B1A2E700BF01215120E8
:10BB50000155208B81B248200153012084F83C001C
:10BB600000212164502001556169616404F13C02A7
:10BB7000002104F1540072DF064600BF304600B1D8
:10BB800086E700BF01202070304681E770B504468B
:10BB90000D462C222946201DFDF78EFC70BD70B588
:10BBA00004460D462E462088102804D0112807D0C0
:10BBB00026280FD109E02146304606F03DFC0AE078
:10BBC0002146304606F0ADFC05E02146304606F041
:10BBD0003CFE00E000BF00BF70BD70B504460E46DD
:10BBE000207808B9082070BDA670002140F22C40D2
:10BBF000C4F82614A4F82A140155A07910B1A0782D
:10BC0000012809D0E07910B1A078012804D0E079AA
:10BC100070B1A07802280BD1606B30B1012084F89C
:10BC20002D040820616B884702E0002084F82D0471
:10BC300031462046FFF722F9A070606BA0B1A078D2
:10BC4000032802D0A07804280ED1607960B194F85E
:10BC50002E0448B9002084F83004012084F82F0411
:10BC60000720616B884702E0002084F82F04182128
:10BC700004F13C00FDF739FC012084F83C0004F19C
:10BC80002C0007F04DF820B194F82C1051200155EC
:10BC900002E001215120015594F8240060B104F123
:10BCA000280007F03DF820B194F8281052200155E3
:10BCB00002E0012152200155002150200155A078B9
:10BCC000052824D2DFE800F01F030A11180004F150
:10BCD0003C01204608F034F8054619E004F13C0127
:10BCE000204608F01BF8054612E004F13C0120460E
:10BCF00008F038F805460BE004F13C01204608F056
:10BD000058F8054604E0002084F8310000E000BF48
:10BD100000BFA07898B104F13C0204F15400D4F8BB
:10BD2000201472DF05460DB128465CE794F8301008
:10BD300094F8540073DF05460DB1284653E7606B55
:10BD400018B194F83100616B884700204BE7000080
:10BD50002DE9F041044600BF14B90E20BDE8F08182
:10BD600000BF1C2221461C48FDF7A6FB1B481A49B0
:10BD70000860206860B120687ADF05460DB128466A
:10BD8000ECE7164821680A6802604968416005E0EE
:10BD900012487BDF05460DB12846DFE7002617E095
:10BDA00006EB86000E4901EB800700BF4FF6FF70DF
:10BDB000388000BF0B4800EB461078600A4A00212B
:10BDC000381DFFF72BFB05460DB10320C6E7761C97
:10BDD000002EE5D00020C1E79C2E00206423002027
:10BDE000882E0020682E0020F147020010B504467E
:10BDF000204600F005F808B1204610BD1420FCE7ED
:10BE000010B50446142C01DB002010BD2146024869
:10BE100003F084FBF9E70000BC2E00202DE9FC4173
:10BE200005460C46174620880930B84202D90C2036
:10BE3000BDE8FC8168466DDF064600BF304600B1B4
:10BE4000F6E700BF0820218868542088401C208025
:10BE50001B20218868542088401C2080208828448A
:10BE6000DDF801100160BDF8051081802088801D7B
:10BE700020809DF80000400818B9002021886854EF
:10BE800002E00120218868542088401C2080002086
:10BE9000CEE70000F8B505460F460024284600F01E
:10BEA000AFF92888212879D006DC102835D0112850
:10BEB00009D013286FD184E03B286DD052286CD074
:10BEC0005628F7D1B0E04FF6FF705E4908802A7A15
:10BED0005D495E4BC91AC908032343EA01405CA1CE
:10BEE00004F0F6FC62480078022806D1012060497F
:10BEF000087008460078FEF745FB5349534A891AF3
:10BF0000C908032242EA01405AA104F0D7FC0020EC
:10BF10005C4908705C49087092E04B494B4A891AA9
:10BF2000C908032242EA014058A104F0C7FC0C20D2
:10BF300004F041FA00205349087053490870022068
:10BF40004B490870A8883F49088008460188534833
:10BF500003F070FC044600BF26463EB100BF50A26D
:10BF600040F29F313046FDF72BFA00BF00BF04229C
:10BF700034480188032077DF044600BF26463EB1DF
:10BF800000BF47A24FF469713046FDF719FA00BFB0
:10BF900000BF55E002E052E03BE026E000200090C8
:10BFA000A88869468FDF044600BF26463EB100BF21
:10BFB0003BA240F2AF313046FDF702FA00BF00BFAE
:10BFC0003EE000231A4685211E4800887FDF044694
:10BFD00000BF26463EB100BF31A240F2B531304627
:10BFE000FDF7EEF900BF00BF00BF00231A46194657
:10BFF00014480088B1DF044600BF26463EB100BFAA
:10C0000027A240F2B9313046FDF7DAF900BF00BF90
:10C0100016E00D490D4A891AC908032242EA014077
:10C0200024A104F04BFC0BE00749084A891AC9080F
:10C03000032242EA014023A104F040FC00E000BFDB
:10C0400000BFF8BD14230020845B0200145B0200D3
:10C05000446973636F6E6E65637465642E207265E8
:10C0600061736F6E3A20307825303478000000001C
:10C07000CA220020424C4520427265616B656421F2
:10C0800000000000D3220020D5220020424C452091
:10C09000436F6E6E6563746564210000C8240020E0
:10C0A0002E2E5C2E2E5C6170705C6D61696E2E634D
:10C0B0000000000047415454432054696D656F757A
:10C0C0007400000047415454532054696D656F75E6
:10C0D0007400000070B504460D462088102806D074
:10C0E000112808D012280ED0502810D107E0204681
:10C0F00006F000F90CE0204606F0FAF908E02046C8
:10C1000006F0D4FB04E0204606F0DCF800E000BFB7
:10C1100000BF70BD2DE9F04104460F46A688208877
:10C12000102806D0112819D019283FD01A284AD132
:10C1300018E007F08DFA304607F00EF930B900BF6D
:10C1400022A2F0210420FDF73BF906E0E07B022863
:10C1500003D13146294803F0F0F934E0304607F0C6
:10C160009BFA30E0207A0509042D01DB012000E074
:10C1700000200246314621480C3001F017FD032D06
:10C1800001DB012000E00020024631461B48083058
:10C1900001F00CFD022D01DB012000E00020024631
:10C1A00031461648001D01F001FD0CE0207A48B927
:10C1B000607AC0F3C0052A46314610480C3001F0C1
:10C1C000F5FC00BF00BF00BFBDE8F0812E2E5C2E45
:10C1D0002E5C636F6D706F6E656E74735C626C6500
:10C1E0005C636F6D6D6F6E5C626C655F636F6E6ECE
:10C1F0005F73746174652E6300000000C42E00201C
:10C2000070B50546AC1D6088B0F5285F17D1288849
:10C21000502814D1628904F10C010948FDF74CF94A
:10C220004FF05A3006490C394860618904480C388F
:10C230008160FEF761FE012001490C39087070BD74
:10C24000CC2C002070B50446204608F0FBF90546CA
:10C2500005F0010070BD000038B504F0E5FF0446AC
:10C2600000BF25463DB100BF15A24FF473712846AB
:10C27000FDF7A6F800BF00BF00200090694601202E
:10C2800004F0D8FD044600BF25463DB100BF0CA216
:10C2900040F2D1312846FDF793F800BF00BF684651
:10C2A00004F092FE044600BF25463DB100BF04A243
:10C2B0004FF475712846FDF783F800BF00BF38BD05
:10C2C0002E2E5C2E2E5C6170705C6D61696E2E632B
:10C2D000000000002DE9F04186B00446884617466C
:10C2E0001D4600BF1CB90E2006B0BDE8F08100BF9E
:10C2F00001AA29466069FFF7FBF9064600BF3046F0
:10C3000000B1F1E700BF4FF6FF70854201D0019800
:10C3100008B90520E8E70198007808B90820E3E7A4
:10C320003888F42801DD0720DEE700200290039022
:10C3300004900590A088ADF80800CDF8148004970B
:10C3400001208DF80A0002A92846AEDFCCE70000E4
:10C3500070B58EB004460E463E4B0FCB09AD0FC5EF
:10C3600000BF14B90E200EB070BD00BF00BF0EB9E3
:10C370000E20F8E700BF3068A061214609A862DFFF
:10C38000054600BF284600B1EDE700BF20788DF8D4
:10C3900036000120ADF83400A21C0DA9A8DF054627
:10C3A00000BF284600B1DEE700BF202101A8FDF74D
:10C3B0009CF80220ADF8040020788DF80600F420E7
:10C3C000ADF808000120ADF80A008DF810009DF8C6
:10C3D000110020F0080008308DF811009DF81100C0
:10C3E00020F00400001D8DF8110001208DF81500CB
:10C3F0008DF81600608804F10C0201A900F0B6F96E
:10C4000005460DB12846AEE7202101A8FDF76DF8DD
:10C410000320ADF8040020788DF80600F420ADF874
:10C4200008000120ADF80A008DF810009DF81100F9
:10C4300020F0100010308DF8110001208DF815004B
:10C440008DF816008DF817006088221D01A900F0F4
:10C450008DF988E7284F020070B504460D4605B1F6
:10C4600004B970BD2E462088102804D0502807D06B
:10C4700057280FD109E02146304605F073FF0AE046
:10C480002146304606F03EFA05E02146304606F0E9
:10C4900007F900E000BF00BF00BFE2E72DE9FC475D
:10C4A00004460D461646A71C4FF0010800200190D7
:10C4B00001A8FFF77BF83048406828602E484068A4
:10C4C0002D498968411A2D480068401CA0EB0109DC
:10C4D00015E001212A4803F054F802F067F882467B
:10C4E0005146274803F04DF823484068224989689F
:10C4F000411A22480068401CA0EB010900BF4F45CB
:10C50000E7D8B8F1000F30D00021009176B1009942
:10C5100021F00301491C0091009921F00401091D3B
:10C520000091009964F3891100910DE0009921F0C8
:10C530000301891C0091009921F00401091D00915B
:10C54000009964F39F5100910B4949680B4A1268A6
:10C550001140094A0C3202EB810000990160064942
:10C56000496839440C3A516000BF9DF80400FFF758
:10C5700023F84046BDE8FC875034002054240020B6
:10C580006C38002070B504460D460A2D03D10D21EC
:10C590002046FFF7F7FFA168481CA06020684554BB
:10C5A000D4E90110884202D3204603F054FA70BD4A
:10C5B0000448806803494968884201D101207047D6
:10C5C0000020FCE75034002070B505460C461248A8
:10C5D000B0F90000401C00B970BD1C2D1AD1012C0F
:10C5E00012D10E48007800280DDD00200B4908709C
:10C5F00008460078FDF7C6FF13210948008876DF5A
:10C60000FFF7ACF8E8E7E7E724B90448007808B991
:10C6100000F0DCFA00BFDFE730230020CA22002050
:10C62000142300200246002108E0074B1B6803EB9F
:10C63000C1000378934200D17047491C0348007839
:10C640008142F2DB0020F7E79023002094230020B2
:10C6500070B540F2333201210F48FEF737FD044632
:10C6600000BF25463DB100BF0CA240F24341284621
:10C67000FCF7A6FE00BF00BFFEF712FD044600BF98
:10C6800025463DB100BF05A240F246412846FCF7D1
:10C6900097FE00BF00BF70BD402300202E2E5C2EF1
:10C6A0002E5C6170705C6D61696E2E63000000002D
:10C6B0004FF0FF31054A42F82010082804DBFF2321
:10C6C000A0F108015032535470470000482F002059
:10C6D0000146024850F8210070470000482F002012
:10C6E0002DE9F04F03460C464FF0FF390AB1002008
:10C6F00000E0082084460AB1082000E00C208046B3
:10C70000614624E0154850F82100401CF0B91D4650
:10C710000846274616464FFA80FBDFF840A00AF18C
:10C72000300A0AF805B0DFF834A04AF820704EB994
:10C730004FFA85FBA0F1080ADFF820E00EF1500E59
:10C740000EF80AB000BF4FFA81F902E0491C4145DA
:10C75000D8D300BF4846BDE8F08F0000482F002026
:10C760000146014840567047782F002070B590B0C0
:10C7700006460C461546A07818B901208DF80E0023
:10C7800002E0A0788DF80E002088ADF80C000020A3
:10C790000290607C02A907F033FBA07C0DF1090137
:10C7A00007F02EFBE07B08B1012000E000209DF89F
:10C7B0000A1060F3C3018DF80A10207C08B1012033
:10C7C00000E000209DF80A1060F304118DF80A10B3
:10C7D000207B08B1012000E000209DF80A1060F3E2
:10C7E00000018DF80A10207D08B1022000E0012030
:10C7F0009DF80A1060F342018DF80A101C2109A867
:10C80000FCF773FE607BC0F3001018B9607BC0F3C7
:10C810004010F8B100200090E07C0DF1010107F01C
:10C82000EFFA00BF9DF8000020F00F00401C8DF8CB
:10C8300000009DF8000020F0F00010308DF800009E
:10C8400000BF9DF8020020F00600801C8DF8020059
:10C85000CDF838D0607B8DF82400A07B8DF82500C2
:10C86000142104A8FCF741FE03A8049002A8059037
:10C87000A088ADF81C00A06820B1E088ADF81800D1
:10C88000A0680890A069002849D000200190A06904
:10C890000088ADF82C00A0694088ADF82E00A06992
:10C8A00040680A9001A80D90A169087B01A907F0D2
:10C8B000A7FAA169487B0DF1050107F0A1FAA0696B
:10C8C000807A08B1012000E000209DF8061060F396
:10C8D000C3018DF80610A069C07A08B1012000E0FC
:10C8E00000209DF8061060F304118DF80610A06971
:10C8F000007A08B1012000E000209DF8061060F3E6
:10C9000000018DF80610A069807B08B1022000E0CC
:10C9100001209DF8061060F342018DF80610E069D1
:10C9200008B1E0690C902B4604AA09A93046AADF99
:10C9300010B070BD70B505460DB9094C01E0084C4A
:10C94000083409E0204601F004FE064606B904E07A
:10C9500028467168884700BFF4E700BF70BD00003B
:10C960003C2F002010B504462CB901200649487020
:10C970000020FFF7DFFF012C04D10120024988705D
:10C98000FFF7D8FF10BD0000342F00202DE9F0473D
:10C99000024613468C46D3E90245DCE90267B6EB52
:10C9A000040877EB050002D30120BDE8F0870020E2
:10C9B000FBE701468878012805D191F8200001287D
:10C9C00001D100207047886A042802D0486A0428F0
:10C9D00001D10020F6E70120F4E733B58BB005461E
:10C9E000002000900C9878B100240BE021460CA8A0
:10C9F00002F094FD28B1009A501C009001A820F884
:10CA00001240641C142CF1D32C2269462846FCF7F2
:10CA100053FD0DB030BD01460888062808DB0888A4
:10CA2000B0F5486F06DD08884FF6FF72904201D0DE
:10CA3000072070474888062808DB4888B0F5486F0B
:10CA400006DD48884FF6FF72904201D00720F0E7DC
:10CA500008884FF6FF72904208D04888904205D06F
:10CA600008884A88904201DD0720E2E70020E0E7DD
:10CA70002DE9F04107460D46144698462088801D52
:10CA8000404502D90C20BDE8F0813846FFF7C3FFCE
:10CA9000064600BF304600B1F5E700BF05202188FB
:10CAA00068542088401C20801220218868542088E7
:10CAB000401C208022885119388807F0C9FD218840
:10CAC0000844208022885119788807F0C1FD218808
:10CAD000084420800020D6E70549064A891AC9087B
:10CAE000032242EA014004A103F0E8FEFEF732F916
:10CAF000845B0200145B0200417070205265736514
:10CB00007420330030B587B01C216846FCF7EDFC7B
:10CB1000002000904FF4A03001904FF4F0200290DC
:10CB200003208DF80C000020ADF80E008DF81000E9
:10CB30000A4805900A4806906846FFF709F9044636
:10CB400000BF25463DB100BF06A240F27E31284617
:10CB5000FCF736FC00BF00BF07B030BD91220200D9
:10CB6000D9CA01002E2E5C2E2E5C6170705C6D6146
:10CB7000696E2E6300000000F8B505460C46607A29
:10CB800088B9207A10B91048476801E00E488768D4
:10CB90002A4639466068FEF787FC064616B13046DD
:10CBA00006F0D2FF0EE0002020720748406948B12D
:10CBB00001208DF80000ADF8025003484169684635
:10CBC000884700BFF8BD00009C2E002010B5002053
:10CBD0002F4908702F490860FEF78CFC322002F0C4
:10CBE000ADFE13212C48008876DF322002F0A6FE2D
:10CBF000FEF7B4FD322002F0A1FE05F0D7F8322096
:10CC000002F09CFEFEF782FC322002F097FE142018
:10CC100003F0D1FB122003F0CEFB642002F08EFE65
:10CC2000142003F07DFB122003F07AFB642002F055
:10CC300085FE142003F0BFFB122003F0BCFB642030
:10CC400002F07CFE142003F06BFB122003F068FB63
:10CC5000642002F073FE142003F0ADFB122003F0F9
:10CC6000AAFB642002F06AFE142003F059FB122094
:10CC700003F056FB642002F061FE4FF0FF300749DD
:10CC800008800C2003F04CFB1E2003F049FB10BD74
:10CC9000CA22002024230020142300203023002057
:10CCA00070B506460D4616B14FF4064070BD2879A2
:10CCB00020B1012809D0022815D111E002202871E5
:10CCC000284606F0A7FB044610E0284600F090FE38
:10CCD000044648F20960844201D141F61D5405E042
:10CCE00041F61D5402E048F20E6400BF00BF20462A
:10CCF000DCE700002DE9F0418046002414E01248F2
:10CD0000006800EBC405287804F07AFD07466878CF
:10CD1000012800D100E00020784080F0010628784A
:10CD2000314600F035FB641C084800788442E6DB9D
:10CD30000748D0E90010002359405840014301D072
:10CD400007F0B4FABDE8F08190230020942300207E
:10CD5000A023002070B51848007801281ED116487D
:10CD60004078002826D101201349487000F0D8FBF4
:10CD7000044600BF25463DB100BF10A240F2F111AC
:10CD80002846FCF71DFB00BF00BF07F031FE002066
:10CD9000094908700120134908700BE01148007818
:10CDA000012807D10448407820B900F0DBFC0020BE
:10CDB0000C49087070BD00004C2300202E2E5C2E04
:10CDC0002E5C6170705C6465766963655F6E616D31
:10CDD000655C6465766963655F6E616D655F6F70E4
:10CDE0002E630000C02C002038B500BF9DF8000065
:10CDF00020F00F00401C00909DF8000020F0F00093
:10CE00001030009000BF00F00DFEF8B91A484068DD
:10CE1000B0F15A3F17D11848008982B216490C3137
:10CE200068467CDF044600BF25463DB100BF13A223
:10CE300040F255112846FCF7C3FA00BF00BF01209D
:10CE40000D49487002E000200B4948700A484078BC
:10CE500080B9092213A168467CDF044600BF25463D
:10CE60003DB100BF05A24FF4AF712846FCF7A8FA08
:10CE700000BF00BF38BD0000C02C00202E2E5C2E4D
:10CE80002E5C6170705C6465766963655F6E616D70
:10CE9000655C6465766963655F6E616D655F6F7023
:10CEA0002E63000057616C6B65725F55480000008F
:10CEB00010B50021034802F09BFB044684F31000E8
:10CEC00010BD00006C38002070B505460C464FF4CC
:10CED000803000FA04F1284600F040FA70BD70B5C9
:10CEE00005460C464FF4A07000EB840086B2314634
:10CEF000284600F0C5FA70BD2DE9F04704460D46FE
:10CF000016461F464FF4803000FA05F84FF4A07023
:10CF100000EB85001FFA80F926F07F464146206825
:10CF200003F02CFF4146206803F022FF49462068A9
:10CF300003F017FF32462946206803F009FF4146F7
:10CF4000206803F018FF1FB14146206803F019FF65
:10CF5000BDE8F08710B50446206803F0FEFE10BD62
:10CF60002DE9F04704460D4617466079324941F8ED
:10CF700020706079314901EBC000007968B1082662
:10CF80002F49304A891AC908022242EA01402EA1DB
:10CF900003F094FC3046BDE8F08729882068C0F88B
:10CFA000081500BF94F90420AB78104619460028F4
:10CFB00008DB4FEA417C4FEA1C68DFF8B0C00CF890
:10CFC00000800BE04FEA417C4FEA1C69DFF8A0C00B
:10CFD00000F00F08A8F104080CF8089000BF00BF8B
:10CFE00094F90410084600280DDB00BF00BF00F0D4
:10CFF0001F0301229A4043099B0003F1E023C3F879
:10D00000002100BF00BF00BF00BF012061790B4AB3
:10D0100002EBC10108716079114641F830400026E9
:10D020000749084A891AC908032242EA014011A1A6
:10D0300003F044FC3046AEE7D8230020DC23002078
:10D04000645B0200145B020052544320696E7374E7
:10D05000616E636520616C726561647920696E69D7
:10D060007469616C697A65642E00000000E400E078
:10D0700018ED00E05254433A20696E697469616C9E
:10D08000697A65642E00000010B5014691F904002C
:10D09000002807DB00F01F0301229A40024B4409DD
:10D0A00043F8242000BF10BD00E200E070B5054643
:10D0B0000C4622460221284600F05CF970BD10B5EE
:10D0C00004464FF48271204600F0DAF910BD10B525
:10D0D00004460021206803F057FE10BD10B5044639
:10D0E0000421206803F050FE10BD2DE9F84F0446DE
:10D0F0008846154699464FF4803000FA08FA4FF4F6
:10D10000A07000EB88001FFA80FB25F07F45514698
:10D11000204600F023F9206803F01FFE0646414632
:10D12000206803F00FFE009032464146206803F06D
:10D130000FFE5946206803F014FE3146009807F0B0
:10D140000FF8012806D1102004F06EFA5946206825
:10D1500003F007FE206803F000FE0646314628462D
:10D1600006F0FEFF07465146206803F004FE012F3B
:10D170000FD16A1C4146206803F0EAFD102004F03C
:10D1800053FA206803F0E9FDB04225D00D20BDE838
:10D19000F88F2A464146206803F0DAFD206803F044
:10D1A000DCFD0646681E314606F0DAFF07466FF0E2
:10D1B0007F40A0EB0900B84201D20D20E7E75FB93C
:10D1C0006A1C4146206803F0C3FD206803F0C5FDDA
:10D1D000B04201D00D20DAE701225146204600F08E
:10D1E000C9F80020D3E700002DE9F84305460E46B4
:10D1F0001746984669461048006802F048F9044608
:10D2000014B90420BDE8F8831C212046FCF76DF911
:10D21000012020712560C4F8088008480068B6FB2A
:10D22000F0F0E060676169460348006802F059F970
:10D2300006F062F80020E5E73052020024520200B6
:10D2400010B50446D4E90321501828DF10BD027838
:10D25000072A38D2DFE802F037040712222B340005
:10D2600000220A7030E001220A7003898B818388D2
:10D27000CB81C2688A6000230B7425E002220A7009
:10D2800003898B818388CB81C2688A60827D062A6C
:10D2900001D1012300E000230B7415E003220A7082
:10D2A000C3888B810389CB81C2688A600CE0042229
:10D2B0000A70C3888B810023CB8100228A6003E03F
:10D2C00005220A7000E000BF00BF704730B587B08C
:10D2D00004460D462068806808B907B030BD1821A3
:10D2E00001A8FCF702F90295A0680690207910B118
:10D2F000012815D109E001208DF804002069039070
:10D30000E0680490606905900BE002208DF804004D
:10D310000749E0680968484303906069059000E0A8
:10D3200000BF00BF2068816801A8884700BFD4E71C
:10D330002452020070B50546002409E0064850F862
:10D34000240020B1044850F8241028468847641C63
:10D35000042CF3D370BD0000C831002070B5044622
:10D360000D462946206803F003FD2946206803F096
:10D3700005FD70BD70B504460E4615463146206861
:10D3800003F0F9FC1DB13146206803F0FAFC70BDD2
:10D39000F8B505460C46284606F00AFE05286AD26E
:10D3A000DFE800F003212A393F00DCB101212846E3
:10D3B00006F00EFE002000906846FEF7F7F82A46B9
:10D3C0000126002730463946FCF763F82B4AD2E99C
:10D3D000003218431143294A03C29DF80000FEF7AA
:10D3E000EBF800BF47E00CB1022000E0002001464E
:10D3F000284606F0EDFD3EE044B10321284606F044
:10D40000E7FD0121284607F052FA03E001212846F2
:10D4100006F0DEFD2FE01CB90421284606F0D8FDF9
:10D4200029E024B10321284606F0D2FD22E00021A4
:10D43000284606F0CDFD0021284607F038FA0020E6
:10D4400000906846FEF7B2F82A46012600273046CB
:10D450003946FCF71EF80A46C143D043074B0CCBB4
:10D4600011401840054AC2E900109DF80000FEF77F
:10D47000A3F800BF00BF00BFF8BD0000A02300203C
:10D4800070B505460C462868015929B1214628681F
:10D4900003F067FC012070BD0020FCE710B50446D6
:10D4A000207830B1012814D0022818D0052822D1C4
:10D4B0001BE0606860B91149114A891AC908032242
:10D4C00042EA01400FA103F0F9F900201349487026
:10D4D00012E0606810B90020104948700CE06068E4
:10D4E00010B900200D49487006E0606810B90020AE
:10D4F0000A49487000E000BF00BF10BD845B020015
:10D50000145B020046445320696E6974207375638E
:10D510006365737366756C6C792120004C23002061
:10D5200038B50E48007810B948F2016038BD684639
:10D5300005F0CEFD044614B948F20760F6E7062070
:10D540002070684605F0D4FD0548007810B1012030
:10D550000349087305F0DEFE0020E7E708240020F9
:10D560009C32002070B586B0142101A8FBF7BDFFE6
:10D570002E48007828B101A8FFF7DCFE002006B095
:10D5800070BD2A48001D01F0F5FF08B10020F6E744
:10D5900000F076FB06460EB13046F0E705F0D4FD0C
:10D5A00005F006FB054625B1022D03D0062D0ED150
:10D5B00003E000BF48F20A60E1E701201B49087060
:10D5C0000020486001A8FFF7B5FE0020D7E700BFA4
:10D5D00000BF684605F07CFD044614B948F20760B8
:10D5E000CDE7012020700C2D16D2DFE805F01506DE
:10D5F000150715111512150A0E0B00BF002020711A
:10D600000BE000BF0320207107E00220207104E03E
:10D6100000BF0120207100E000BF00BF684605F098
:10D6200067FD05F077FE0020A9E700000824002030
:10D6300038B5044614B948F2046038BD694620463E
:10D6400005F006FF08B3BDF8000000EB80001149AB
:10D6500001EB8000C068A8B1A07A98B1BDF80000C5
:10D6600000EB800001EB8000C068401EBDF8001098
:10D6700001EB8101074A02EB8101C8600020A07222
:10D68000002504E048F2056501E048F209652846F6
:10D69000D3E70000743200207FB514461D462B46A8
:10D6A000224601A9684605F06BFE04B070BD00007B
:10D6B000F8B504460D4604B115B948F20460F8BD4A
:10D6C0006946204605F0C4FEA0B16668BDF80010AA
:10D6D00001EB8101094A02EB810101F10C000121FA
:10D6E00001F04FFF2E6060680C3068600120A0726E
:10D6F0000020E4E748F20960E1E70000743200200E
:10D7000070B504460D4614B948F2046070BD032399
:10D7100000222946204607F06BFAF7E770B5044669
:10D720000D46022300222946204607F061FA70BD0B
:10D7300070B5054609480068042802D148F20B6418
:10D7400009E007480549096840F8215001210348CC
:10D7500001F017FF0024204670BD000014240020B3
:10D76000C831002030B585B00020029003900490AD
:10D7700000900190009001906B4602AA41F20101D5
:10D78000481EFFF789FF0446282229492948FBF74C
:10D7900093FE002C29D0012027494870274902A870
:10D7A000FFF7BCFF044648F20660844205D1012021
:10D7B00021490870002048700CE000BF254635B1B3
:10D7C00000BF1FA2BA212846FBF7FAFD00BF00BF29
:10D7D00007F00EF92449254A891AC908032242EAAA
:10D7E000014023A103F06AF81EE0012012494870AD
:10D7F000124902A8FFF784FF044648F206608442FB
:10D8000005D101200C490870002048700CE000BFD1
:10D81000254635B100BF0AA2CB212846FBF7D0FD33
:10D8200000BF00BF07F0E4F8002005B030BD0000E5
:10D83000C42C0020182D00204C230020EC4E0200A8
:10D840002E2E5C2E2E5C6170705C6465766963655B
:10D850005F6E616D655C6465766963655F6E616D61
:10D86000655F6F702E630000845B0200145B020032
:10D87000777269746500000030B585B000200290B1
:10D880000390049000900190009001906B4602AAD2
:10D8900042F20101481EFFF7FFFE044628222E49EE
:10D8A0002E48FBF709FE002C29D001202C49487096
:10D8B0002C4902A8FFF732FF044648F20660844272
:10D8C00005D1012026490870002048700CE000BFF7
:10D8D000254635B100BF24A2EB212846FBF770FD99
:10D8E00000BF00BF07F084F829492A4A891AC908ED
:10D8F000032242EA014028A102F0E0FF28E00120D3
:10D9000017494870174902A8FFF7FAFE044648F283
:10D910000660844205D1012011490870002048703A
:10D920000CE000BF254635B100BF0FA2FC21284600
:10D93000FBF746FD00BF00BF07F05AF81449154A2F
:10D94000891AC908032242EA014015A102F0B6FF74
:10D95000002005B030BD0000F02C0020402D00203C
:10D960004C230020F84E02002E2E5C2E2E5C61709F
:10D97000705C6465766963655F6E616D655C646546
:10D98000766963655F6E616D655F6F702E63000021
:10D99000845B0200145B020077726974650000000A
:10D9A000666C61736800000070B504460D462A4637
:10D9B0000021204600F009F8A068401CA06070BD5E
:10D9C00001468A68C868801A704710B583680B449E
:10D9D000848823400468E35C137010BDC2688388A8
:10D9E0001A4003689954C268521CC2607047000014
:10D9F0003EB504460A4B6A460021A01D05F0C0FC56
:10DA0000054635B9064A9188019805F09BFD054603
:10DA100003E0034800210160416028463EBD00004C
:10DA20002424002070B588B048F2096400200590D5
:10DA300006900790039004900390049003AB05AA0E
:10DA400041F20101481EFFF727FE0446002C31D1A8
:10DA50000190029001A905A8FFF72AFE044600BF25
:10DA600026463EB100BF15A240F217113046FBF723
:10DA7000A7FC00BF00BF029D002006E055F8202053
:10DA8000184941F82020411CC8B2019949888142B7
:10DA9000F4DC05A8FFF7CCFD044600BF26463EB1E6
:10DAA00000BF06A24FF490713046FBF789FC00BF1F
:10DAB00000BF00BF204608B070BD00002E2E5C2EB7
:10DAC0002E5C6170705C6465766963655F6E616D24
:10DAD000655C6465766963655F6E616D655F6F70D7
:10DAE0002E630000C42C002070B588B048F2096491
:10DAF00000200590069007900390049003900490F6
:10DB000003AB05AA42F20101481EFFF7C5FD04461A
:10DB1000002C31D10190029001A905A8FFF7C8FDA2
:10DB2000044600BF26463EB100BF15A24FF49C71CB
:10DB30003046FBF745FC00BF00BF029D002006E019
:10DB400055F82020184941F82020411CC8B20199FD
:10DB500049888142F4DC05A8FFF76AFD044600BF4E
:10DB600026463EB100BF06A240F241113046FBF707
:10DB700027FC00BF00BF00BF204608B070BD0000FA
:10DB80002E2E5C2E2E5C6170705C64657669636518
:10DB90005F6E616D655C6465766963655F6E616D1E
:10DBA000655F6F702E630000F02C002070B5054695
:10DBB0000E46144624B13146284601F0BEFC03E06F
:10DBC0003146284601F09BFC70BD30B504461088F4
:10DBD000C01C984201D90C2030BD02201588485540
:10DBE0001088401C10800120158848551088401C62
:10DBF000108015884C551088401C10800020EBE7E1
:10DC000070B504460D4640F21442115B0122D4F86F
:10DC10001004FDF78FFE064606B1357004F13C0294
:10DC200004F5826104F1540072DF70BD10B54FF449
:10DC3000405400F009F80349086108460069001BD8
:10DC4000C86010BDA024002010B540F6F870006830
:10DC5000401C18B94FF01020406902E040F6F870FF
:10DC6000006802464FF0805001693023501C08B113
:10DC7000104602E001EB410000010446204610BDC1
:10DC800010B5FFF7D3FF00220249034802F0A2F8C3
:10DC900010BD000034520200A024002010B504463C
:10DCA000606805F0C7FA10BD7CB5FFF79DF800204D
:10DCB000009001900C20ADF800001920ADF8020092
:10DCC0000020ADF804003220ADF8060068467ADF87
:10DCD000044600BF254635B100BF04A2D82128461E
:10DCE000FBF76EFB00BF00BF7CBD00002E2E5C2E3C
:10DCF0002E5C6170705C6D61696E2E6300000000C7
:10DD00007047000070B51049104801F0FBFC044654
:10DD100000BF254635B100BF0DA2E5212846FBF71F
:10DD20004FFB00BF00BFF721084801F0DCFC0446B0
:10DD300000BF254635B100BF05A2E8212846FBF704
:10DD40003FFB00BF00BF70BD01DD0100B824002013
:10DD50002E2E5C2E2E5C6170705C6D61696E2E6380
:10DD60000000000070B5054615B14FF4064070BDC7
:10DD70001848007B18B100201649087301E000F034
:10DD8000DFF81448007808281DD2DFE800F01C04F2
:10DD9000080C101C141800F03FF8044616E000F0C0
:10DDA000BDF8044612E000F099F804460EE000F0D9
:10DDB00047F804460AE000F035F9044606E000F0B2
:10DDC00043F9044602E048F20E6400BF00BF20465B
:10DDD000CDE700009C3200200D480089401C0C4912
:10DDE000088100204880087300BF0DE000EB80012F
:10DDF000084A12F8211009B9012200E00022044962
:10DE00000A310A54411C88B20228EFDB7047000037
:10DE10009C3200207432002010B5084800F036F81B
:10DE200040B900200549891E08704880486041F6C5
:10DE30001D5010BD00F072F8FBE700009E3200207C
:10DE400070B50F48458805EB85000E4901EB800051
:10DE5000C06878B904200A49087005EB8500094AB2
:10DE600002EB8000002301224168074801F0FAFE1E
:10DE7000044602E000F090F80446204670BD000021
:10DE80009C32002074320020A024002010B50146EE
:10DE90000022002018E00F4B1B5C9BB100240D4BAF
:10DEA0001C5400EB80030C4C04EB8303DB684BB980
:10DEB00000EB800304EB83031B7C012B02D1088061
:10DEC000012203E0431C98B20228E4DB00BF1046A5
:10DED00010BD0000A632002074320020F8B50C48B6
:10DEE00044680C4800680B49898800EB810560880C
:10DEF000C01C86B20320064908700020B3000090C1
:10DF0000084629464268044802F024F8F8BD00009B
:10DF10009C3200201C240020A024002010B50749BA
:10DF20004888091D05F0D2FA18B1FFF7D7FF04465B
:10DF300002E0FFF785FF0446204610BD9C3200201A
:10DF400010B514480078082820D2DFE800F0041F3C
:10DF50001F0A1016171BFFF73FFF01200D4908701D
:10DF600015E000F07DF802200A4908700FE000F08B
:10DF700029F806200749087009E000BF0720054975
:10DF8000087004E001200349087000E000BF00BFF2
:10DF900010BD00009C32002010B505200649087015
:10DFA00002200649888008460023012201680448AF
:10DFB00001F058FE10BD00009C3200201C240020FF
:10DFC000A0240020144908681449498801EB810104
:10DFD000134A02EB810149680F4A11600F494988D1
:10DFE00001EB81010E4A02EB810148600A498988F0
:10DFF0000A4A528802EB8202094B03EB820211812A
:10E000000221054A91800021044A528802EB8202D3
:10E0100003EB8202117470471C2400209C32002004
:10E020007432002010B5062005490870498801EBBC
:10E030008101044A02EB8101486804F097FD10BD9C
:10E040009C3200207432002010B50720034908706C
:10E050000020486004F09AFD10BD00009C320020B2
:10E06000054A50684288D21C91B2044A92880A44F8
:10E07000024B9A80704700009C3200201C24002034
:10E0800070B50B48FEF766FF0A4B0CCB841843F1C2
:10E090000005094903C9201A75EB010004D24FF0AD
:10E0A0008073E41845F100052046294670BD000044
:10E0B000A8230020B8230020C02300202DE9F04130
:10E0C00004468846E0B2FEF7ADFA0546287803F02C
:10E0D00097FB07466878012800D100E000207840CF
:10E0E00080F001064EB10648D0E9001000235940E7
:10E0F0005840014301D106F0D9F8BDE8F081000095
:10E10000A023002070B504460D46204600F01DF8FF
:10E11000A84201D9022070BDA0884FF6FF71884245
:10E1200004D0208810B1A068401C08B90120F2E793
:10E130000020F0E7024613468B4204D21868401CC8
:10E1400008B1012070470020FCE701464A8801F130
:10E150000C0000EB8200704710B502F021FA08B9FC
:10E1600002F0CEFD10BD000070B504460D46094812
:10E170006060094801F0FEF950B903F0AFF80649B4
:10E1800008741C238C2205490548006801F06BF9CE
:10E19000002070BD24520200B4310020183100204C
:10E1A000305202002DE9F04106460C4648F20E6757
:10E1B00036B10020434948604FF40640BDE8F08185
:10E1C000207930B101280AD0022835D003286DD13A
:10E1D00040E00120207104F0D9FC074667E04FF0D1
:10E1E0000008002519E005EB8500374911F82000EB
:10E1F000022810D1002005EB8501334A02F82100E6
:10E200004FF0010805EB850102EB8101486804F03D
:10E21000ADFC074603E0681C85B2022DE3DB00BFBE
:10E22000B8F1000F07D1012026490870002048608E
:10E2300041F61D50C2E73AE0002020710220234938
:10E2400088800846002301220168214801F00AFD68
:10E2500007462CE0002020711C49086804F086FC69
:10E2600007461C4845881948D0F8008005EB850012
:10E27000154901EB800040681449086005EB8500F2
:10E28000114901EB8000C0F804801048808805EB3C
:10E2900085010D4A02EB8101088102200B4988802B
:10E2A000002005EB850102F8210000E000BF00BF5F
:10E2B0002FB100200349486048F20D607EE700203E
:10E2C0007CE7000008240020743200201C24002079
:10E2D000A02400209C320020024600210CE001EB2B
:10E2E0008100074B33F82000904204D101EB8100FC
:10E2F00003EB80007047491C0029F0D00020F9E7AB
:10E30000882E00202DE9FC5F83460E4691461F466D
:10E31000DDE90C45002E01DA704200E0304682460D
:10E320004FF0010803E09AFBF9FA08F10108CA4529
:10E33000F9DA474500D9B84634B1002E03DB05F0C1
:10E340000400042800D1641E05F0020000B167B18A
:10E3500005F0010048B944B104E0641E202158468C
:10E36000FEF710F90CB1A045F7D3002E05DA76427E
:10E370002D215846FEF706F907E005F004000428B1
:10E3800003D12B215846FEF7FDF805F002000228C4
:10E390000DD105F0010050B94FB944B104E0641E3D
:10E3A00030215846FEF7EEF80CB1A045F7D33B46B6
:10E3B0004A4631465846CDE9004506F061F9BDE8C8
:10E3C000FC9F000070B505461249286803F09AF8D2
:10E3D000286803F03DF904462046002817DB00F0CA
:10E3E0001F02012191400C4A430942F8231000BF4B
:10E3F00000BF00BFBFF34F8F00BF00BF00BF00BF13
:10E4000000BF00BFBFF36F8F00BF00BF00BF00BFE2
:10E4100000BF70BD8402020080E100E070B50546D7
:10E420001249286803F08FF8286803F015F90446AC
:10E430002046002817DB00F01F02012191400C4A02
:10E44000430942F8231000BF00BF00BFBFF34F8F46
:10E4500000BF00BF00BF00BF00BF00BFBFF36F8F92
:10E4600000BF00BF00BF00BF00BF70BD100342006F
:10E4700080E100E030B5024600201378C3F380034A
:10E48000D3B1137803F00303012B02D0022B10D178
:10E4900007E01388C3F383139B1C0C6823440B60B1
:10E4A00008E00B680225146805EB945423440B60C4
:10E4B00000E000BF00BF012030BD0000014603485E
:10E4C000007A08B1012070470020FCE7B431002039
:10E4D0002DE9F0410446A08800EB020CB4F804805A
:10E4E000904501DD104600E0A088A8EB0005E0881B
:10E4F000C618B4F80680984501DD184600E0E088AB
:10E50000A8EB00074888B4F80080404504DB488841
:10E51000B4F80280404502DD0020BDE8F081888823
:10E52000A84202D38888604501D90020F5E7C88851
:10E53000B84202D3C888B04201D90020EDE70120DB
:10E54000EBE7014601F0030008B901207047002005
:10E55000FCE70146086808B102680A60704710B518
:10E56000044622460121002001F0C0FE002105E002
:10E5700054F8210008B1012010BD491C0029F7D032
:10E580000020F9E710B502F0FBFF20B903F01EF8F8
:10E5900000200149887010BD342F0020F721018030
:10E5A0001721418000210171417170472DE9FF4120
:10E5B00000272E4800F0D7FF2C48001F00F0D3FFA3
:10E5C0002B48806803902B48056803982840284909
:10E5D0000C3101EB800800BF03A94046FFF74AFF5A
:10E5E00030B10398284022490C3101EB800800E04B
:10E5F00000E0F1E700BF00240AE00398411C284036
:10E6000003911B490C3151F820004DF82400641C83
:10E61000022CF2D3009800F0030001280DD002284C
:10E6200014D1BDF806700421009801EB9050401EF3
:10E63000039901EB9000039009E0BDF80670009883
:10E64000C0F3831003990844039000E000BF00BFAB
:10E650000648001F00F080FF064616B104490398E3
:10E660008860384604B0BDE8F081000068380020BA
:10E6700050340020542400202DE9F0418AB0074690
:10E68000142105A8FAF731FF00261C2001F06FFEC7
:10E69000B8B9FE480078642809D1FD49FD4A891AB5
:10E6A000C908032242EA0140FBA102F007F9F7483A
:10E6B00001780078401CF54A10706E2904DDFCF7E3
:10E6C00049FB0020F1490870F648007803F028FD66
:10E6D000FBF7C2FA0020FCF7DFF800B2F24908802D
:10E6E000F2480078012821D1E949EA4A891AC90883
:10E6F000032242EA0140EE490A78EEA102F0E8F86E
:10E700000C2001F058FEEA4800785A280EDD00205F
:10E71000E6490870FBF7E0F9DD49DE4A891AC908C5
:10E72000032242EA0140E8A102F0C8F8E04800787C
:10E73000401CDF490870084600780A2190FBF1F27E
:10E7400001FB1200002858D1E248B0F90000B0F5F2
:10E750009B7F0ADCE0480078042806D1DF48008867
:10E76000143000B2DD49088011E0DD48007801284E
:10E770000ADCD9480078042806D1D8480088401C13
:10E7800000B2D649088002E00020D4490880D3486E
:10E79000B0F90000B0F5167F10DD0020CF490880E9
:10E7A000CF49087008460078FBF7ECFE1321CD48EE
:10E7B000008876DFFCF7D2FFFEF708FAFBF7D4FDFE
:10E7C000B948B0F90020C8480078C5490978C24B5B
:10E7D0001B78CDE90031CDE90202AD49AD4A891A75
:10E7E000C908032242EA0140C049B1F90030B949E1
:10E7F000B1F90020BEA102F0B7F8AD480078642856
:10E8000002DD0020AA490870A94800780A2870D1C2
:10E81000C648008800B2C6490880C4480088FAF794
:10E82000E6FE8046C349FAF772FE0546FAF7E4FEB3
:10E8300000B2A8490880C0480078012804D10846E1
:10E8400000880A3800B20880A248B0F90000B0F58C
:10E85000AF7F03DC0120A54908803EE09D48B0F968
:10E860000000B0F5B17F03DA0520A049088034E04C
:10E870009848B0F90000B0F5B27F03DC0A209B494C
:10E8800008802AE09348B0F90000B0F5B57F03DCBA
:10E8900014209649088020E08E48B0F90000B0F5B9
:10E8A000B97F03DA28209149088016E08948B0F939
:10E8B0000000B0F5BE7F03DA3C208C4908800CE0F4
:10E8C0008448B0F90000B0F5C57F03DC50208749CB
:10E8D000088002E06420854908808448B0F900007F
:10E8E0000A2803DC01209549087002E000209349C2
:10E8F0000870102001F03BFD012807D10F2001F026
:10E9000036FD18B90220744908701DE0102001F08E
:10E910002EFD012808D10F2001F029FD012803D187
:10E9200003206D4908700FE0102001F020FD40B970
:10E930000F2001F01CFD012803D104206649087056
:10E9400002E0012064490870634800787C49097836
:10E9500088422FD060480078022806D101207649ED
:10E9600008705F480078FBF70DFE5B4800780428CC
:10E970001CD173480078022803D07148007803281E
:10E9800014D157480078012810DC00206A4908702B
:10E990005349087008460078FBF7F4FD13215148ED
:10E9A000008876DFFCF7DAFEFEF710F94A480078B7
:10E9B000634908704A480078012851DC61480078B2
:10E9C000401C6049087008460078142848DB444819
:10E9D0000078FBF7D7FD00205A4908703E480078C0
:10E9E000022806D00020544908703D480078FBF703
:10E9F000C9FD3848B0F90000B0F5C87F2BDB3648B8
:10EA00000078022827D13348B0F900004E49B1F907
:10EA10000010884205DC4D480088401C4B490880A6
:10EA200007E02C48B0F9000047490880002047491A
:10EA3000088046480088B0F5C87F11DD00203E49B7
:10EA4000087027480078FBF79DFD00203F490880AB
:10EA50003D49088004E000203C4908803A4908808C
:10EA60001F480078022803D01D480078032871D180
:10EA700037480078401C3649087008460078052859
:10EA80006DDB17480078FBF77DFD65E0C8220020AC
:10EA9000845B0200145B020042746E205265736551
:10EAA0007421000010230020DC220020D822002046
:10EAB000D12200204E6F2046696E6420446174614B
:10EAC000212D256420000000496E69742044617482
:10EAD00061210000DE220020CB220020E022002065
